{
  "contractName": "TodoList",
  "abi": [
    {
      "inputs": [],
      "stateMutability": "nonpayable",
      "type": "constructor"
    },
    {
      "anonymous": false,
      "inputs": [
        {
          "indexed": false,
          "internalType": "uint256",
          "name": "id",
          "type": "uint256"
        },
        {
          "indexed": false,
          "internalType": "string",
          "name": "content",
          "type": "string"
        },
        {
          "indexed": false,
          "internalType": "bool",
          "name": "completed",
          "type": "bool"
        }
      ],
      "name": "TaskCreated",
      "type": "event"
    },
    {
      "anonymous": false,
      "inputs": [
        {
          "indexed": false,
          "internalType": "uint256",
          "name": "id",
          "type": "uint256"
        },
        {
          "indexed": false,
          "internalType": "bool",
          "name": "complted",
          "type": "bool"
        }
      ],
      "name": "TaskcCompleted",
      "type": "event"
    },
    {
      "inputs": [],
      "name": "taskCount",
      "outputs": [
        {
          "internalType": "uint256",
          "name": "",
          "type": "uint256"
        }
      ],
      "stateMutability": "view",
      "type": "function",
      "constant": true
    },
    {
      "inputs": [
        {
          "internalType": "uint256",
          "name": "",
          "type": "uint256"
        }
      ],
      "name": "tasks",
      "outputs": [
        {
          "internalType": "uint256",
          "name": "id",
          "type": "uint256"
        },
        {
          "internalType": "string",
          "name": "content",
          "type": "string"
        },
        {
          "internalType": "bool",
          "name": "completed",
          "type": "bool"
        }
      ],
      "stateMutability": "view",
      "type": "function",
      "constant": true
    },
    {
      "inputs": [
        {
          "internalType": "string",
          "name": "_content",
          "type": "string"
        }
      ],
      "name": "createTask",
      "outputs": [],
      "stateMutability": "nonpayable",
      "type": "function"
    },
    {
      "inputs": [
        {
          "internalType": "uint256",
          "name": "_id",
          "type": "uint256"
        }
      ],
      "name": "toggleCompleted",
      "outputs": [],
      "stateMutability": "nonpayable",
      "type": "function"
    }
  ],
  "bytecode": "0x6080604052600080553480156200001557600080fd5b506200005c6040518060400160405280600a81526020017f4669727374205461736b000000000000000000000000000000000000000000008152506200006260201b60201c565b62000615565b600080815480929190620000769062000170565b919050555060405180606001604052806000548152602001828152602001600015158152506001600080548152602001908152602001600020600082015181600001556020820151816001019081620000d091906200042d565b5060408201518160020160006101000a81548160ff0219169083151502179055509050507f05d0fb833127fc08168556d0e7ca9554fc3f6bc843b3b7d2bf1c35aea6bab6606000548260006040516200012c93929190620005d1565b60405180910390a150565b7f4e487b7100000000000000000000000000000000000000000000000000000000600052601160045260246000fd5b6000819050919050565b60006200017d8262000166565b91507fffffffffffffffffffffffffffffffffffffffffffffffffffffffffffffffff8203620001b257620001b162000137565b5b600182019050919050565b600081519050919050565b7f4e487b7100000000000000000000000000000000000000000000000000000000600052604160045260246000fd5b7f4e487b7100000000000000000000000000000000000000000000000000000000600052602260045260246000fd5b600060028204905060018216806200023f57607f821691505b602082108103620002555762000254620001f7565b5b50919050565b60008190508160005260206000209050919050565b60006020601f8301049050919050565b600082821b905092915050565b600060088302620002bf7fffffffffffffffffffffffffffffffffffffffffffffffffffffffffffffffff8262000280565b620002cb868362000280565b95508019841693508086168417925050509392505050565b6000819050919050565b60006200030e62000308620003028462000166565b620002e3565b62000166565b9050919050565b6000819050919050565b6200032a83620002ed565b62000342620003398262000315565b8484546200028d565b825550505050565b600090565b620003596200034a565b620003668184846200031f565b505050565b5b818110156200038e57620003826000826200034f565b6001810190506200036c565b5050565b601f821115620003dd57620003a7816200025b565b620003b28462000270565b81016020851015620003c2578190505b620003da620003d18562000270565b8301826200036b565b50505b505050565b600082821c905092915050565b60006200040260001984600802620003e2565b1980831691505092915050565b60006200041d8383620003ef565b9150826002028217905092915050565b6200043882620001bd565b67ffffffffffffffff811115620004545762000453620001c8565b5b62000460825462000226565b6200046d82828562000392565b600060209050601f831160018114620004a5576000841562000490578287015190505b6200049c85826200040f565b8655506200050c565b601f198416620004b5866200025b565b60005b82811015620004df57848901518255600182019150602085019450602081019050620004b8565b86831015620004ff5784890151620004fb601f891682620003ef565b8355505b6001600288020188555050505b505050505050565b6200051f8162000166565b82525050565b600082825260208201905092915050565b60005b838110156200055657808201518184015260208101905062000539565b60008484015250505050565b6000601f19601f8301169050919050565b60006200058082620001bd565b6200058c818562000525565b93506200059e81856020860162000536565b620005a98162000562565b840191505092915050565b60008115159050919050565b620005cb81620005b4565b82525050565b6000606082019050620005e8600083018662000514565b8181036020830152620005fc818562000573565b90506200060d6040830184620005c0565b949350505050565b610aaf80620006256000396000f3fe608060405234801561001057600080fd5b506004361061004c5760003560e01c8063111002aa14610051578063455f50241461006d5780638d97767214610089578063b6cb58a5146100bb575b600080fd5b61006b6004803603810190610066919061054d565b6100d9565b005b610087600480360381019061008291906105cc565b6101a8565b005b6100a3600480360381019061009e91906105cc565b61032e565b6040516100b2939291906106a2565b60405180910390f35b6100c36103ed565b6040516100d091906106e0565b60405180910390f35b6000808154809291906100eb9061072a565b919050555060405180606001604052806000548152602001828152602001600015158152506001600080548152602001908152602001600020600082015181600001556020820151816001019081610143919061097e565b5060408201518160020160006101000a81548160ff0219169083151502179055509050507f05d0fb833127fc08168556d0e7ca9554fc3f6bc843b3b7d2bf1c35aea6bab66060005482600060405161019d939291906106a2565b60405180910390a150565b600060016000838152602001908152602001600020604051806060016040529081600082015481526020016001820180546101e2906107a1565b80601f016020809104026020016040519081016040528092919081815260200182805461020e906107a1565b801561025b5780601f106102305761010080835404028352916020019161025b565b820191906000526020600020905b81548152906001019060200180831161023e57829003601f168201915b505050505081526020016002820160009054906101000a900460ff161515151581525050905080604001511581604001901515908115158152505080600160008481526020019081526020016000206000820151816000015560208201518160010190816102c9919061097e565b5060408201518160020160006101000a81548160ff0219169083151502179055509050507f8e0b5100552462ba7b84acf12c83a409b730d7837288bf2296fc615a4949c443828260400151604051610322929190610a50565b60405180910390a15050565b6001602052806000526040600020600091509050806000015490806001018054610357906107a1565b80601f0160208091040260200160405190810160405280929190818152602001828054610383906107a1565b80156103d05780601f106103a5576101008083540402835291602001916103d0565b820191906000526020600020905b8154815290600101906020018083116103b357829003601f168201915b5050505050908060020160009054906101000a900460ff16905083565b60005481565b6000604051905090565b600080fd5b600080fd5b600080fd5b600080fd5b6000601f19601f8301169050919050565b7f4e487b7100000000000000000000000000000000000000000000000000000000600052604160045260246000fd5b61045a82610411565b810181811067ffffffffffffffff8211171561047957610478610422565b5b80604052505050565b600061048c6103f3565b90506104988282610451565b919050565b600067ffffffffffffffff8211156104b8576104b7610422565b5b6104c182610411565b9050602081019050919050565b82818337600083830152505050565b60006104f06104eb8461049d565b610482565b90508281526020810184848401111561050c5761050b61040c565b5b6105178482856104ce565b509392505050565b600082601f83011261053457610533610407565b5b81356105448482602086016104dd565b91505092915050565b600060208284031215610563576105626103fd565b5b600082013567ffffffffffffffff81111561058157610580610402565b5b61058d8482850161051f565b91505092915050565b6000819050919050565b6105a981610596565b81146105b457600080fd5b50565b6000813590506105c6816105a0565b92915050565b6000602082840312156105e2576105e16103fd565b5b60006105f0848285016105b7565b91505092915050565b61060281610596565b82525050565b600081519050919050565b600082825260208201905092915050565b60005b83811015610642578082015181840152602081019050610627565b60008484015250505050565b600061065982610608565b6106638185610613565b9350610673818560208601610624565b61067c81610411565b840191505092915050565b60008115159050919050565b61069c81610687565b82525050565b60006060820190506106b760008301866105f9565b81810360208301526106c9818561064e565b90506106d86040830184610693565b949350505050565b60006020820190506106f560008301846105f9565b92915050565b7f4e487b7100000000000000000000000000000000000000000000000000000000600052601160045260246000fd5b600061073582610596565b91507fffffffffffffffffffffffffffffffffffffffffffffffffffffffffffffffff8203610767576107666106fb565b5b600182019050919050565b7f4e487b7100000000000000000000000000000000000000000000000000000000600052602260045260246000fd5b600060028204905060018216806107b957607f821691505b6020821081036107cc576107cb610772565b5b50919050565b60008190508160005260206000209050919050565b60006020601f8301049050919050565b600082821b905092915050565b6000600883026108347fffffffffffffffffffffffffffffffffffffffffffffffffffffffffffffffff826107f7565b61083e86836107f7565b95508019841693508086168417925050509392505050565b6000819050919050565b600061087b61087661087184610596565b610856565b610596565b9050919050565b6000819050919050565b61089583610860565b6108a96108a182610882565b848454610804565b825550505050565b600090565b6108be6108b1565b6108c981848461088c565b505050565b5b818110156108ed576108e26000826108b6565b6001810190506108cf565b5050565b601f82111561093257610903816107d2565b61090c846107e7565b8101602085101561091b578190505b61092f610927856107e7565b8301826108ce565b50505b505050565b600082821c905092915050565b600061095560001984600802610937565b1980831691505092915050565b600061096e8383610944565b9150826002028217905092915050565b61098782610608565b67ffffffffffffffff8111156109a05761099f610422565b5b6109aa82546107a1565b6109b58282856108f1565b600060209050601f8311600181146109e857600084156109d6578287015190505b6109e08582610962565b865550610a48565b601f1984166109f6866107d2565b60005b82811015610a1e578489015182556001820191506020850194506020810190506109f9565b86831015610a3b5784890151610a37601f891682610944565b8355505b6001600288020188555050505b505050505050565b6000604082019050610a6560008301856105f9565b610a726020830184610693565b939250505056fea264697066735822122032a357306db58b19e0d26b4b5c8c50f072587535b1cd78e9b21bd1fa410201a064736f6c63430008110033",
  "immutableReferences": {},
  "source": "pragma solidity 0.8.17;\r\n\r\ncontract TodoList {\r\n    uint public taskCount = 0;\r\n\r\n    struct Task {\r\n        uint id;\r\n        string content;\r\n        bool completed;\r\n    }\r\n\r\n    mapping(uint => Task) public tasks;\r\n\r\n    event TaskCreated(\r\n        uint id,\r\n        string content,\r\n        bool completed\r\n    );\r\n\r\n    event TaskcCompleted(\r\n        uint id,\r\n        bool complted\r\n    );\r\n\r\n    constructor() public {\r\n        createTask(\"First Task\");\r\n    }\r\n    function createTask(string memory _content) public {\r\n        taskCount ++;\r\n        tasks[taskCount] = Task(taskCount, _content, false);\r\n        emit TaskCreated(taskCount, _content, false);\r\n\r\n    }\r\n\r\n    function toggleCompleted (uint _id) public {\r\n        Task memory _task = tasks[_id];\r\n        _task.completed = !_task.completed;\r\n        tasks[_id] = _task;\r\n        emit TaskcCompleted(_id, _task.completed);\r\n    }\r\n\r\n\r\n}\r\n\r\n",
  "sourcePath": "E:\\Blockchain\\dapp\\contracts\\TodoList.sol",
  "compiler": {
    "name": "solc",
    "version": "0.8.17+commit.8df45f5f.Emscripten.clang"
  },
  "schemaVersion": "3.4.10",
  "updatedAt": "2022-11-15T09:11:41.348Z",
  "networkType": "ethereum",
  "devdoc": {
    "kind": "dev",
    "methods": {},
    "version": 1
  },
  "userdoc": {
    "kind": "user",
    "methods": {},
    "version": 1
  }
}